:020000040800F2
:10000000002800207D190008091700080F170008B4
:10001000151700081B170008211700080000000032
:10002000000000000000000000000000271700088A
:1000300033170008000000003F1700084B170008A6
:10004000C5190008C5190008C5190008C519000818
:10005000C5190008C5190008C5190008C519000808
:10006000C5190008C5190008C5190008C5190008F8
:10007000C5190008C5190008C5190008C5190008E8
:10008000C5190008C5190008C5190008C5190008D8
:10009000C5190008C5190008C5190008C5190008C8
:1000A000C5190008C5190008C5190008C5190008B8
:1000B00059170008C519000800000000C5190008FC
:1000C000C51900080000000000000000C519000864
:1000D00000000000C5190008C51900080000000054
:1000E000C5190008C5190008C5190008000000005E
:1000F0000000000000000000000000000000000000
:0C01000000000000000000005FF808F1A3
:10010C0010B5054C237833B9044B13B10448AFF345
:10011C0000800123237010BDEC00002000000000C3
:10012C00F42F000808B5034B1BB103490348AFF388
:10013C00008008BD00000000F0000020F42F000833
:10014C0080B483B000AF7860094A7B6852F82330E2
:10015C00012B06D1064A7B68002142F823100123AB
:10016C0000E0002318460C37BD4680BC704700BF2A
:10017C006401002080B582B000AF00237B6081E079
:10018C00454A7B6852F8232044497B6841F8232078
:10019C00434A7B6852F823203F497B6841F823206F
:1001AC007B68002B0BD14FF400513E4801F0F0FE60
:1001BC00034619463A4A7B6842F823101CE07B68D8
:1001CC00012B0BD14FF48041364801F0E1FE034680
:1001DC001946334A7B6842F823100DE07B68022BEA
:1001EC000AD14FF400412F4801F0D2FE03461946C4
:1001FC002B4A7B6842F82310284A7B6852F823204C
:10020C0025497B6851F823309A4238D1224A7B68C1
:10021C0052F8232022497B6851F823309A422ED180
:10022C001F4A7B6852F823201F497B6851F8233002
:10023C009A4216D01A4A7B6852F823201A497B68D6
:10024C0041F82320164A7B6852F82330002B16D134
:10025C00164BC8221A60164A7B68012142F82310FB
:10026C000DE0124B1B68013B104A13600F4B1B68CF
:10027C00002B04D10A4A7B68012142F823107B68C9
:10028C0001337B607B68092B7FF77AAF00BF00BF1F
:10029C000837BD4680BD00BF28000020500000205C
:1002AC0000000020000C014078000020A00000207D
:1002BC006401002080B500AF984B1B68043B032BF6
:1002CC0000F2118101A252F823F000BFE9020008EC
:1002DC001F03000851040008B9030008904B1B6869
:1002EC004FF47A7202FB03F38E4A13608D4B1B683A
:1002FC001946002001F05CF94FF47A71052001F0E9
:10030C0057F93221072001F053F9844B05221A606A
:10031C00E9E001F02BFA844B1B68844A82FB031240
:10032C009210DB17D31A824A13607F4B19687F4BEC
:10033C0083FB01239A10CB17D21A13469B0013444C
:10034C005B00CA1A7A4B5A607A4B5B69012B11D14C
:10035C00754B1B68013B744A1360734B1B68002B75
:10036C0003D16F4B1B68704A13604FF47A710520F0
:10037C0001F01EF96F4B1B68012B40F0AF806E4BE8
:10038C001B684FF47A7202FB03F3664A5360654BA9
:10039C005B681946002001F00BF94FF47A710520C7
:1003AC0001F006F95D4B07221A6097E001F00AFA9A
:1003BC00624B1B685D4A82FB03129210DB17D31A47
:1003CC005B4A13605D4B1968584B83FB01239A10F1
:1003DC00CB17D21A13469B0013445B00CA1A544B1A
:1003EC005A60544B5B69012B11D1544B1B68013B78
:1003FC00524A1360514B1B68002B03D14E4B1B68A8
:10040C004E4A13604FF47A71052001F0D1F8494B34
:10041C001B68012B64D14A4B1B684FF47A7202FBA8
:10042C0003F3404A93603F4B9B681946002001F050
:10043C00BFF84FF47A71052001F0BAF8374B062259
:10044C001A604DE001F0A8F93E4B1B68374A82FB5D
:10045C0003129210DB17D31A354A1360394B196803
:10046C00324B83FB01239A10CB17D21A13469B00F5
:10047C0013445B00CA1A2E4B5A602E4B5B69012B3E
:10048C0011D1304B1B68013B2E4A13602D4B1B685E
:10049C00002B03D12A4B1B682A4A13604FF47A7144
:1004AC00052001F085F8234B1B68012B1AD11C4B3E
:1004BC001B684FF47A7202FB03F31A4A1360194B50
:1004CC001B681946002001F073F84FF47A7105206F
:1004DC0001F06EF8114B05221A6003E000BF02E038
:1004EC0000BF00E000BF134BDB69012B14D1164B8E
:1004FC001B68184600F0BEFE134B1B680133124AF2
:10050C001360114B1B68022B02D10F4B00221A6097
:10051C00FA21072001F04CF800BF80BDA400002098
:10052C00B000002008010020B80000206766666655
:10053C002C010020D4010020D0000020D800002085
:10054C00C0000020C80000202401002080B500AFAE
:10055C00984B1B68083B032B00F2118101A252F847
:10056C0023F000BF81050008E906000851060008C9
:10057C00B7050008904B1B684FF47A7202FB03F32B
:10058C008E4A13608D4B1B681946012001F010F840
:10059C004FF47A71062001F00BF83221082001F09B
:1005AC0007F8844B0B221A60E9E001F04DF9844BFB
:1005BC001B68844A82FB03129210DB17D31A824AFF
:1005CC0013607F4B19687F4B83FB01239A10CB1769
:1005DC00D21A13469B0013445B00CA1A7A4B5A601A
:1005EC007A4B9B69012B11D1754B1B68013B744AEB
:1005FC001360734B1B68002B03D16F4B1B68704A45
:10060C0013604FF47A71062000F0D2FF6F4B5B68D9
:10061C00012B40F0AF806E4B1B684FF47A7202FBDB
:10062C0003F3664A5360654B5B681946012000F082
:10063C00BFFF4FF47A71062000F0BAFF5D4B0A221F
:10064C001A6097E001F0EAF8624B1B685D4A82FB86
:10065C0003129210DB17D31A5B4A13605D4B1968B7
:10066C00584B83FB01239A10CB17D21A13469B00CD
:10067C0013445B00CA1A544B5A60544B9B69012BB0
:10068C0011D1544B1B68013B524A1360514B1B68F0
:10069C00002B03D14E4B1B684E4A13604FF47A71FA
:1006AC00062000F085FF494B5B68012B64D14A4B57
:1006BC001B684FF47A7202FB03F3404A93603F4B82
:1006CC009B681946012000F073FF4FF47A710620E5
:1006DC0000F06EFF374B09221A604DE001F088F8EC
:1006EC003E4B1B68374A82FB03129210DB17D31A5E
:1006FC00354A1360394B1968324B83FB01239A102E
:10070C00CB17D21A13469B0013445B00CA1A2E4B0C
:10071C005A602E4B9B69012B11D1304B1B68013B4E
:10072C002E4A13602D4B1B68002B03D12A4B1B68E0
:10073C002A4A13604FF47A71062000F039FF234BDC
:10074C005B68012B1AD11C4B1B684FF47A7202FBAD
:10075C0003F31A4A1360194B1B681946012000F069
:10076C0027FF4FF47A71062000F022FF114B0B2269
:10077C001A6003E000BF02E000BF00E000BF134BB3
:10078C001B6A012B14D1164B1B68184600F0A8FDF0
:10079C00134B1B680133124A1360114B1B68022B5D
:1007AC0002D10F4B00221A60FA21082000F000FF42
:1007BC0000BF80BDA8000020D40000201401002040
:1007CC00DC0000206766666634010020D40100203E
:1007DC00C4000020CC000020B4000020BC0000208D
:1007EC002801002080B500AFFFF764FDFFF7AEFED7
:1007FC0000BF80BD80B500AF5D4B1B68032B00F2C2
:10080C008B8001A252F823F0250800083D0800084F
:10081C0077080008C1080008FFF7E4FF0020FFF785
:10082C008FFC0346012B70D1514B01221A606CE0F6
:10083C00504B0C221A6000F0C1F80220FFF780FC2C
:10084C000346012B07D14C4B1B684C4A13604C4B95
:10085C001B684C4A13600020FFF772FC0346012B07
:10086C0055D1434B02221A6051E0424B0D221A60C3
:10087C0000F0A4F80220FFF763FC0346012B0FD114
:10088C00414B1B68414A1360414B1B68414A136042
:10089C00394B1B68394A1360394B1B68394A136052
:1008AC000020FFF74DFC0346012B32D1304B0322C5
:1008BC001A602EE02F4B0E221A6000F07FF80220F7
:1008CC00FFF73EFC0346012B0FD1334B1B68334A19
:1008DC001360334B1B68334A1360274B1B68274A42
:1008EC001360274B1B68274A13600020FFF728FC76
:1008FC000346012B0FD12C4B04221A602B4B0822E0
:10090C001A601B4B00221A6005E000BF04E000BF18
:10091C0002E000BF00E000BF254B9B68012B25D1F6
:10092C00244B1B68184600F0A5FC224B1B680133B6
:10093C00204A13601F4B1B68022B02D11D4B002257
:10094C001A601D4B1B68184600F0CAFC1A4B1B683A
:10095C000133194A1360184B1B68022B02D1164B3A
:10096C0000221A60FA21022000F022FE00BF80BD96
:10097C0020010020AC000020B0000020B8000020B6
:10098C00B4000020BC000020C0000020C8000020E3
:10099C00C4000020CC000020D0000020D800002093
:1009AC00D4000020DC000020A4000020A8000020BF
:1009BC00D4010020240100202801002080B500AFC4
:1009CC00754B1B680E2B00F095800E2B00F3E2800C
:1009DC000C2B02D00D2B3DD0DCE000F077FF6F4BE1
:1009EC001B69012B06D100F045FF4FF4FA7104206E
:1009FC0000F0DEFD0120FFF7A3FB0346012B09D11C
:100A0C00674B1B680133664A1360664B1B680133E6
:100A1C00644A1360624B1B68634A82FB0312921098
:100A2C00DB17D31A614A13605D4B19685E4B83FB6D
:100A3C0001239A10CB17D21A13469B0013445B0068
:100A4C00CA1A5A4B5A605A4B00221A60584B012250
:100A5C005A609FE000F056FF504B1B69012B06D1EA
:100A6C0000F016FF4FF4FA71042000F0A1FD0120F4
:100A7C00FFF766FB0346012B1CD14E4B1B68013361
:100A8C004C4A13604C4B1B6801334B4A1360494B67
:100A9C001A684A4B1B681A44414B1B689A4209DD81
:100AAC003F4B1B6801333E4A13603E4B1B680133BE
:100ABC003C4A13603F4B1B683B4A82FB031292106B
:100ACC00DB17D31A394A13603A4B1968364B83FB40
:100ADC0001239A10CB17D21A13469B0013445B00C8
:100AEC00CA1A324B5A60324B00221A60304B022227
:100AFC005A604FE000F022FF284B1B69012B06D1F6
:100B0C0000F0D4FE4FF4FA71042000F051FD0120E6
:100B1C00FFF716FB0346012B1CD1284B1B68013336
:100B2C00264A1360264B1B680133254A1360214B60
:100B3C001A68224B1B681A44194B1B689A4209DD30
:100B4C00174B1B680133164A1360164B1B68013395
:100B5C00144A1360194B1B68134A82FB0312921040
:100B6C00DB17D31A114A1360144B19680E4B83FB15
:100B7C0001239A10CB17D21A13469B0013445B0027
:100B8C00CA1A0A4B5A600A4B00221A60084B0322FD
:100B9C005A6000BF00BF80BDAC000020D401002013
:100BAC00B0000020B4000020676666662C010020AF
:100BBC0034010020C0000020C4000020D000002020
:100BCC00D400002080B582B000AF78607B68002B29
:100BDC0029D100224FF40071D34801F0F0F9002222
:100BEC004FF48061D04801F0EAF900224FF4006123
:100BFC00CD4801F0E4F900224FF48051CA4801F0CD
:100C0C00DEF900224FF40051C74801F0D8F9002258
:100C1C004FF48041C44801F0D2F901224FF4004155
:100C2C00C14801F0CCF97B68012B29D101224FF48A
:100C3C000071BD4801F0C3F900224FF48061BA483D
:100C4C0001F0BDF900224FF40061B74801F0B7F98B
:100C5C0001224FF48051B44801F0B1F901224FF454
:100C6C000051B14801F0ABF901224FF48041AE487C
:100C7C0001F0A5F901224FF40041AB4801F09FF9B6
:100C8C007B68022B29D100224FF40071A64801F099
:100C9C0096F900224FF48061A34801F090F90122EB
:100CAC004FF40061A04801F08AF900224FF4805102
:100CBC009D4801F084F900224FF400519A4801F04C
:100CCC007EF901224FF48041974801F078F9002217
:100CDC004FF40041944801F072F97B68032B29D141
:100CEC0000224FF40071904801F069F900224FF492
:100CFC0080618D4801F063F900224FF400618A484D
:100D0C0001F05DF900224FF48051874801F057F94A
:100D1C0001224FF40051844801F051F901224FF4A3
:100D2C008041814801F04BF900224FF400417E488C
:100D3C0001F045F97B68042B29D101224FF4007195
:100D4C00794801F03CF900224FF48061764801F0BB
:100D5C0036F900224FF40061734801F030F901229A
:100D6C004FF48051704801F02AF901224FF40051E0
:100D7C006D4801F024F900224FF480416A4801F0DB
:100D8C001EF900224FF40041674801F018F97B6806
:100D9C00052B29D100224FF40071634801F00FF9A3
:100DAC0001224FF48061604801F009F900224FF4F0
:100DBC0000615D4801F003F900224FF480515A485C
:100DCC0001F0FDF801224FF40051574801F0F7F8FB
:100DDC0000224FF48041544801F0F1F800224FF406
:100DEC000041514801F0EBF87B68062B29D1002219
:100DFC004FF400714C4801F0E2F801224FF480618D
:100E0C00494801F0DCF800224FF40061464801F03B
:100E1C00D6F800224FF48051434801F0D0F800225C
:100E2C004FF40051404801F0CAF800224FF48041C1
:100E3C003D4801F0C4F800224FF400413A4801F05B
:100E4C00BEF87B68072B29D100224FF4007136487D
:100E5C0001F0B5F800224FF48061334801F0AFF88F
:100E6C0000224FF40061304801F0A9F801224FF440
:100E7C0080512D4801F0A3F801224FF400512A486B
:100E8C0001F09DF801224FF48041274801F097F8BA
:100E9C0001224FF40041244801F091F87B68082BA3
:100EAC0029D100224FF400711F4801F088F800226C
:100EBC004FF480611C4801F082F800224FF400616D
:100ECC00194801F07CF800224FF48051164801F0CB
:100EDC0076F800224FF40051134801F070F800220C
:100EEC004FF48041104801F06AF800224FF40041A1
:100EFC000D4801F064F87B68092B2CD100224FF4CB
:100F0C000071094801F05BF800224FF4806106483B
:100F1C0001F055F800224FF40061034801F04FF83E
:100F2C0000224FF4805101E0000801400C4801F010
:100F3C0046F801224FF40051094801F040F8002214
:100F4C004FF48041064801F03AF800224FF400417A
:100F5C00034801F034F800BF0837BD4680BD00BF20
:100F6C000008014080B582B000AF78607B68002B30
:100F7C0022D100220121BE4801F021F800220221D9
:100F8C00BB4801F01CF800220421B94801F017F805
:100F9C0000220821B64801F012F800221021B448B2
:100FAC0001F00DF800222021B14801F008F80122CF
:100FBC004021AF4801F003F87B68012B23D10122BB
:100FCC000121AB4800F0FBFF00220221A84800F0F1
:100FDC00F6FF00220421A64800F0F1FF01220821AF
:100FEC00A34800F0ECFF01221021A14800F0E7FF1C
:100FFC00012220219E4800F0E2FF01224FF4004123
:10100C009B4800F0DCFF7B68022B22D100220121DF
:10101C00974800F0D4FF00220221954800F0CFFF42
:10102C0001220421924800F0CAFF002208219048B6
:10103C0000F0C5FF002210218D4800F0C0FF0122F6
:10104C0020218B4800F0BBFF00224021884800F093
:10105C00B6FF7B68032B22D100220121844800F0CB
:10106C00AEFF00220221824800F0A9FF00220421D9
:10107C007F4800F0A4FF002208217D4800F09FFF6C
:10108C00012210217A4800F09AFF01222021784891
:10109C0000F095FF00224021754800F090FF7B681E
:1010AC00042B22D101220121714800F088FF00227B
:1010BC0002216F4800F083FF002204216C4800F0ED
:1010CC007EFF012208216A4800F079FF01221021DD
:1010DC00674800F074FF00222021654800F06FFF84
:1010EC0000224021624800F06AFF7B68052B22D168
:1010FC00002201215E4800F062FF012202215C48BF
:10110C0000F05DFF00220421594800F058FF002236
:10111C000821574800F053FF01221021544800F0D9
:10112C004EFF00222021524800F049FF00224021AE
:10113C004F4800F044FF7B68062B23D1002201218D
:10114C004B4800F03CFF01220221494800F037FFD8
:10115C0000220421464800F032FF002208214448B6
:10116C0000F02DFF00221021414800F028FF002242
:10117C0020213F4800F023FF00224FF400413C485F
:10118C0000F01DFF7B68072B22D10022012138487B
:10119C0000F015FF00220221354800F010FF00225C
:1011AC000421334800F00BFF01220821304800F0E5
:1011BC0006FF012210212E4800F001FF0122202100
:1011CC002B4800F0FCFE01224021294800F0F7FEDC
:1011DC007B68082B22D100220121254800F0EFFE6C
:1011EC0000220221224800F0EAFE002204212048BD
:1011FC0000F0E5FE002208211D4800F0E0FE002270
:10120C0010211B4800F0DBFE00222021184800F0C2
:10121C00D6FE00224021164800F0D1FE7B68092B37
:10122C0022D100220121124800F0C9FE0022022125
:10123C000F4800F0C4FE002204210D4800F0BFFE50
:10124C00002208210A4800F0BAFE012210210848A9
:10125C0000F0B5FE00222021054800F0B0FE00226F
:10126C004021034800F0ABFE00BF0837BD4680BDEF
:10127C00000C014080B582B000AF78607B68002B19
:10128C0003D07B68012B11D021E000228021124871
:10129C0000F095FE01224FF480710F4800F08FFE94
:1012AC000E4B1B681846FFF78DFC10E001228021C5
:1012BC00094800F084FE00224FF48071064800F0CB
:1012CC007EFE064B5B681846FFF77CFC00BF00BF38
:1012DC000837BD4680BD00BF000C01402C0100202A
:1012EC0080B582B000AF78607B68002B03D07B6840
:1012FC00012B12D023E000224FF40071124800F0B1
:10130C005EFE01224FF480510F4800F058FE0F4B47
:10131C001B681846FFF726FE11E001224FF40071FE
:10132C00094800F04CFE00224FF48051064800F0B2
:10133C0046FE064B5B681846FFF714FE00BF00BF65
:10134C000837BD4680BD00BF000C014034010020B1
:10135C0080B500AF00F032FB00F02CF800F066F81E
:10136C0000F0B0F8104801F087FAFA21022000F0E2
:10137C001FF94FF4FA71042000F01AF94FF47A7146
:10138C00092000F015F9094B5B6A012B08D14FF4C9
:10139C007A71092000F00CF92021054800F027FE95
:1013AC00FFF728FAEFE700BF8C010020D4010020E2
:1013BC000008014080B590B000AF07F11803282257
:1013CC000021184601F008FE3B1D00221A605A60ED
:1013DC009A60DA601A610223BB610123BB6210239D
:1013EC00FB6200237B6307F11803184600F018FE1C
:1013FC000346002B01D000F0D5F80F237B600023AF
:10140C00BB600023FB6000233B6100237B613B1D21
:10141C000021184601F084F80346002B01D000F09F
:10142C00C1F800BF4037BD4680BD000080B586B016
:10143C0000AF07F1080300221A605A609A60DA6064
:10144C003B4600221A605A601D4B4FF080421A60D6
:10145C001B4B41F63F725A60194B00229A60184B95
:10146C000922DA60164B00221A61154B00229A6190
:10147C00134801F0B1F90346002B01D000F092F8AB
:10148C004FF48053BB6007F1080319460C4801F078
:10149C002FFB0346002B01D000F084F800233B60A7
:1014AC0000237B603B461946054801F007FD0346C7
:1014BC00002B01D000F076F800BF1837BD4680BD78
:1014CC008C01002080B586B000AF07F10803002224
:1014DC001A605A609A60DA60294B9B69284A43F07B
:1014EC0004039361264B9B6903F004037B607B68C8
:1014FC00234B9B69224A43F008039361204B9B6961
:10150C0003F008033B603B6800224FF6FC711D485A
:10151C0000F055FD002241F2FF311B4800F04FFD59
:10152C004FF6FC73BB600123FB6000233B6102237D
:10153C007B6107F108031946124800F0AFFB41F23A
:10154C00FF33BB600123FB6000233B6102237B6103
:10155C0007F1080319460C4800F0A0FB4FF4604358
:10156C00BB600023FB6001233B6107F108031946B4
:10157C00054800F093FB00BF1837BD4680BD00BF87
:10158C000010024000080140000C014080B582B000
:10159C0000AF786000F02CF8FEF7ECFD00BF0837C8
:1015AC00BD4680BD80B400AF72B600BFFEE7000040
:1015BC0080B483B000AF786039600A4A7B68002140
:1015CC0042F823103B68084A82FB03129210DB1787
:1015DC00D21A06497B6841F8232000BF0C37BD4660
:1015EC0080BC7047D4010020676666663C01002011
:1015FC0080B483B000AF00237B601CE0124A7B6890
:10160C0052F82330002B13DD0F4A7B6852F823303D
:10161C005A1E0D497B6841F823200B4A7B6852F80F
:10162C002330002B04DC094A7B68012142F823108B
:10163C007B6801337B607B68092BDFDD00BF00BF5B
:10164C000C37BD4680BC70473C010020D401002003
:10165C0080B485B000AF154B9B69144A43F001036D
:10166C009361124B9B6903F00103BB60BB680F4B8A
:10167C00DB690E4A43F08053D3610C4BDB6903F0FA
:10168C0080537B607B680A4B5B68FB60FB6823F0D4
:10169C00E063FB60FB6843F08063FB60044AFB681B
:1016AC00536000BF1437BD4680BC70470010024029
:1016BC000000014080B584B000AF78607B681B6887
:1016CC00B3F1804F13D10C4BDB690B4A43F0010390
:1016DC00D361094BDB6903F00103FB60FB6800225B
:1016EC0000211C2000F0A3FA1C2000F0BCFA00BF63
:1016FC001037BD4680BD00BF0010024080B400AF63
:10170C00FEE780B400AFFEE780B400AFFEE780B424
:10171C0000AFFEE780B400AFFEE780B400AF00BFBF
:10172C00BD4680BC704780B400AF00BFBD4680BCD6
:10173C00704780B400AF00BFBD4680BC704780B519
:10174C0000AF00F081F900BF80BD000080B500AF94
:10175C00024801F0DDF800BF80BD00BF8C01002005
:10176C0080B400AF00BFBD4680BC704780B500AFF1
:10177C0001220421074800F022FC00220821054820
:10178C0000F01DFC00221021024800F018FC00BFE4
:10179C0080BD00BF0008014080B500AF00220421CD
:1017AC00074800F00CFC01220821054800F007FC5A
:1017BC0000221021024800F002FC00BF80BD00BFD7
:1017CC000008014080B500AF00220421074800F05A
:1017DC00F6FB00220821054800F0F1FB0122102144
:1017EC00024800F0ECFB00BF80BD00BF00080140C8
:1017FC0080B500AF01224021074800F0E0FB002239
:10180C008021054800F0DBFB00224FF48071024878
:10181C0000F0D5FB00BF80BD0008014080B500AFD3
:10182C0000224021074800F0CAFB01228021054814
:10183C0000F0C5FB00224FF48071024800F0BFFBA2
:10184C0000BF80BD0008014080B500AF00224021E0
:10185C00074800F0B4FB00228021054800F0AFFBE4
:10186C0001224FF48071024800F0A9FB00BF80BD3B
:10187C000008014080B500AF0421044800F0B7FB1C
:10188C004021024800F0B3FB00BF80BD00080140BE
:10189C0080B500AF0821044800F0A9FB8021024864
:1018AC0000F0A5FB00BF80BD0008014080B500AF73
:1018BC001021054800F09BFB4FF48071024800F0AA
:1018CC0096FB00BF80BD00BF0008014080B500AF93
:1018DC00002208210A4800F072FB0022102108485F
:1018EC0000F06DFB00228021054800F068FB00220F
:1018FC004FF48071024800F062FB00BF80BD00BF56
:10190C000008014080B500AF002204210A4800F015
:10191C0056FB00221021084800F051FB0022402108
:10192C00054800F04CFB00224FF48071024800F097
:10193C0046FB00BF80BD00BF0008014080B500AF72
:10194C0000220421094800F03AFB00220821074834
:10195C0000F035FB00224021044800F030FB00224F
:10196C008021024800F02BFB00BF80BD0008014025
:10197C00FFF7F6FE0B480C490C4A002302E0D45842
:10198C00C4500433C4188C42F9D3094A094C0023BF
:10199C0001E013600432A242FBD301F0F9FAFFF725
:1019AC00D7FC704700000020EC0000203830000805
:1019BC00EC00002000020020FEE7000080B500AF24
:1019CC00084B1B68074A43F010031360032000F018
:1019DC0023F90F2000F008F8FFF73AFE0023184611
:1019EC0080BD00BF0020024080B582B000AF78609F
:1019FC00124B1A68124B1B7819464FF47A73B3FBCF
:101A0C00F1F3B2FBF3F3184600F03BF90346002B5D
:101A1C0001D001230EE07B680F2B0AD800227968D5
:101A2C004FF0FF3000F003F9064A7B681360002387
:101A3C0000E0012318460837BD4680BDE0000020B9
:101A4C00E8000020E400002080B400AF054B1B78B8
:101A5C001A46054B1B681344034A136000BFBD466E
:101A6C0080BC7047E8000020FC01002080B400AF6F
:101A7C00024B1B681846BD4680BC7047FC01002019
:101A8C0080B485B000AF78607B6803F00703FB601F
:101A9C000C4BDB68BB60BA684FF6FF031340BB60AE
:101AAC00FB681A02BB68134343F0BF6343F4003373
:101ABC00BB60044ABB68D36000BF1437BD4680BC12
:101ACC00704700BF00ED00E080B400AF044BDB6852
:101ADC001B0A03F007031846BD4680BC704700BFC5
:101AEC0000ED00E080B483B000AF0346FB7197F9C2
:101AFC000730002B0BDBFB7903F01F02064997F92B
:101B0C0007305B09012000FA02F241F8232000BFE4
:101B1C000C37BD4680BC704700E100E080B483B058
:101B2C0000AF03463960FB7197F90730002B0ADBD5
:101B3C003B68DAB20C4997F907301201D2B20B4468
:101B4C0083F800230AE03B68DAB20849FB7903F01A
:101B5C000F03043B1201D2B20B441A7600BF0C37B0
:101B6C00BD4680BC704700BF00E100E000ED00E026
:101B7C0080B489B000AFF860B9607A60FB6803F09C
:101B8C000703FB61FB69C3F10703042B28BF042384
:101B9C00BB61FB690433062B02D9FB69033B00E0F4
:101BAC0000237B614FF0FF32BB6902FA03F3DA4387
:101BBC00BB681A407B699A404FF0FF317B6901FA90
:101BCC0003F3D9437B680B40134318462437BD46B7
:101BDC0080BC704780B582B000AF78607B68013BF9
:101BEC00B3F1807F01D301230FE00A4A7B68013BEC
:101BFC0053600F214FF0FF30FFF790FF054B002291
:101C0C009A60044B07221A60002318460837BD4619
:101C1C0080BD00BF10E000E080B582B000AF7860FE
:101C2C007868FFF72DFF00BF0837BD4680BD80B533
:101C3C0086B000AF0346B9607A60FB7300237B610A
:101C4C00FFF742FF78617A68B9687869FFF790FF0F
:101C5C00024697F90F3011461846FFF75FFF00BF99
:101C6C001837BD4680BD80B582B000AF0346FB710E
:101C7C0097F907301846FFF735FF00BF0837BD4608
:101C8C0080BD80B582B000AF78607868FFF7A2FFA6
:101C9C00034618460837BD4680BD000080B48BB0A3
:101CAC0000AF7860396000237B6200233B6248E11F
:101CBC0001227B6A02FA03F3FB613B681B68FA6939
:101CCC001340BB61BA69FB699A4240F037813B68AB
:101CDC005B68A34A93425ED0A14A934275D8A14A4D
:101CEC00934258D09F4A93426FD89F4A934252D006
:101CFC009D4A934269D89D4A93424CD09B4A934249
:101D0C0063D89B4A934246D0994A93425DD8122B92
:101D1C002AD8122B59D801A252F823F0A31D00087F
:101D2C007D1D00088F1D0008D11D0008D71D00085F
:101D3C00D71D0008D71D0008D71D0008D71D0008A7
:101D4C00D71D0008D71D0008D71D0008D71D000897
:101D5C00D71D0008D71D0008D71D0008D71D000887
:101D6C00851D0008991D0008824A934213D02CE06F
:101D7C003B68DB683B6229E03B68DB6804333B6211
:101D8C0024E03B68DB6808333B621FE03B68DB68A0
:101D9C000C333B621AE03B689B68002B02D1042396
:101DAC003B6213E03B689B68012B05D108233B6227
:101DBC007B68FA691A6109E008233B627B68FA695F
:101DCC005A6103E000233B6200E000BFBB69FF2BBC
:101DDC0001D87B6801E07B6804337B61BB69FF2B16
:101DEC0002D87B6A9B0002E07B6A083B9B003B614C
:101DFC007B691A680F213B6901FA03F3DB431A4034
:101E0C00396A3B6901FA03F31A437B691A603B6830
:101E1C005B6803F08053002B00F09080564B9B695D
:101E2C00554A43F001039361534B9B6903F0010343
:101E3C00BB60BB68514A7B6A9B08023352F8233063
:101E4C00FB607B6A03F003039B000F2202FA03F38F
:101E5C00DB43FA681340FB607B68494A93420DD020
:101E6C007B68484A934207D07B68474A934201D12A
:101E7C00022304E0032302E0012300E000237A6A3A
:101E8C0002F0030292009340FA681343FB603B4953
:101E9C007B6A9B080233FA6841F823203B685B6835
:101EAC0003F48013002B06D0384B9A683749BB6972
:101EBC0013438B6006E0354B9A68BB69DB433349AF
:101ECC0013408B603B685B6803F40013002B06D057
:101EDC002E4BDA682D49BB691343CB6006E02B4BC4
:101EEC00DA68BB69DB4329491340CB603B685B680C
:101EFC0003F40033002B06D0244B5A682349BB69EA
:101F0C0013434B6006E0214B5A68BB69DB431F4906
:101F1C0013404B603B685B6803F48033002B06D0A6
:101F2C001A4B1A681949BB6913430B6006E0174B2F
:101F3C001A68BB69DB43154913400B607B6A01339C
:101F4C007B623B681A687B6A22FA03F3002B7FF4EE
:101F5C00AFAE00BF00BF2C37BD4680BC704700BF82
:101F6C00000032100000311000002210000021107F
:101F7C00000012100000111000100240000001407F
:101F8C0000080140000C0140001001400004014019
:101F9C0080B485B000AF78600B467B807B689A6814
:101FAC007B881340002B02D00123FB7301E000233C
:101FBC00FB73FB7B18461437BD4680BC704780B45E
:101FCC0083B000AF78600B467B8013467B707B78C8
:101FDC00002B03D07A887B681A6103E07B881A0493
:101FEC007B681A6100BF0C37BD4680BC704780B45B
:101FFC0085B000AF78600B467B807B68DB68FB604C
:10200C007A88FB6813401A04FB68D9437B880B4021
:10201C001A437B681A6100BF1437BD4680BC7047F9
:10202C0080B586B000AF78607B68002B01D10123AE
:10203C006CE27B681B6803F00103002B00F08780C7
:10204C00924B5B6803F00C03042B0CD08F4B5B683A
:10205C0003F00C03082B12D18C4B5B6803F4803318
:10206C00B3F5803F0BD1894B1B6803F40033002B75
:10207C006CD07B685B68002B68D1012346E27B68DF
:10208C005B68B3F5803F06D1804B1B687F4A43F4F5
:10209C00803313602EE07B685B68002B0CD17B4B8C
:1020AC001B687A4A23F480331360784B1B68774A99
:1020BC0023F4802313601DE07B685B68B3F5A02FCD
:1020CC000CD1724B1B68714A43F4802313606F4B25
:1020DC001B686E4A43F4803313600BE06B4B1B6838
:1020EC006A4A23F480331360684B1B68674A23F4F5
:1020FC00802313607B685B68002B13D0FFF7B6FC62
:10210C00386108E0FFF7B2FC02463B69D31A642B36
:10211C0001D90323FAE15D4B1B6803F40033002B58
:10212C00F0D014E0FFF7A2FC386108E0FFF79EFC4A
:10213C0002463B69D31A642B01D90323E6E1534BC6
:10214C001B6803F40033002BF0D100E000BF7B6868
:10215C001B6803F00203002B63D04C4B5B6803F04D
:10216C000C03002B0BD0494B5B6803F00C03082BC2
:10217C001CD1464B5B6803F48033002B16D1434BC8
:10218C001B6803F00203002B05D07B681B69012B35
:10219C0001D00123BAE13D4B1B6823F0F8027B68A8
:1021AC005B69DB00394913430B603AE07B681B69C0
:1021BC00002B20D0364B01221A60FFF757FC3861F8
:1021CC0008E0FFF753FC02463B69D31A022B01D9F6
:1021DC0003239BE12D4B1B6803F00203002BF0D073
:1021EC002A4B1B6823F0F8027B685B69DB002749EC
:1021FC0013430B6015E0264B00221A60FFF736FCE8
:10220C00386108E0FFF732FC02463B69D31A022B17
:10221C0001D903237AE11D4B1B6803F00203002B49
:10222C00F0D17B681B6803F00803002B3AD07B6865
:10223C009B69002B19D0174B01221A60FFF716FC73
:10224C00386108E0FFF712FC02463B69D31A022BF7
:10225C0001D903235AE10D4B5B6A03F00203002BF7
:10226C00F0D0012000F09AFA1CE00A4B00221A6010
:10227C00FFF7FCFB38610FE0FFF7F8FB02463B6908
:10228C00D31A022B08D9032340E100BF00100240EF
:10229C0000004242800442429E4B5B6A03F0020300
:1022AC00002BE9D17B681B6803F00403002B00F0C2
:1022BC00A6800023FB75974BDB6903F08053002B42
:1022CC000DD1944BDB69934A43F08053D361914B0E
:1022DC00DB6903F08053BB60BB680123FB758E4B3D
:1022EC001B6803F48073002B18D18B4B1B688A4A34
:1022FC0043F480731360FFF7B9FB386108E0FFF714
:10230C00B5FB02463B69D31A642B01D90323FDE0CC
:10231C00814B1B6803F48073002BF0D07B68DB6867
:10232C00012B06D17B4B1B6A7A4A43F001031362E3
:10233C002DE07B68DB68002B0CD1764B1B6A754A51
:10234C0023F001031362734B1B6A724A23F00403DC
:10235C0013621CE07B68DB68052B0CD16D4B1B6A90
:10236C006C4A43F0040313626A4B1B6A694A43F0DC
:10237C00010313620BE0674B1B6A664A23F00103EF
:10238C001362644B1B6A634A23F0040313627B6879
:10239C00DB68002B15D0FFF769FB38610AE0FFF70B
:1023AC0065FB02463B69D31A41F28832934201D94C
:1023BC000323ABE0574B1B6A03F00203002BEED058
:1023CC0014E0FFF753FB38610AE0FFF74FFB0246BE
:1023DC003B69D31A41F28832934201D9032395E029
:1023EC004C4B1B6A03F00203002BEED1FB7D012B3F
:1023FC0005D1484BDB69474A23F08053D3617B6896
:10240C00DB69002B00F08180424B5B6803F00C030E
:10241C00082B61D07B68DB69022B46D13F4B002235
:10242C001A60FFF723FB386108E0FFF71FFB024639
:10243C003B69D31A022B01D9032367E0354B1B6888
:10244C0003F00073002BF0D17B681B6AB3F5803F5F
:10245C0008D1304B5B6823F400327B689B682D49B4
:10246C0013434B602B4B5B6823F474127B68196A23
:10247C007B685B6A0B43274913434B60274B012254
:10248C001A60FFF7F3FA386108E0FFF7EFFA02463B
:10249C003B69D31A022B01D9032337E01D4B1B6870
:1024AC0003F00073002BF0D02FE01C4B00221A60BD
:1024BC00FFF7DCFA386108E0FFF7D8FA02463B690F
:1024CC00D31A022B01D9032320E0124B1B6803F013
:1024DC000073002BF0D118E07B68DB69012B01D174
:1024EC00012313E00B4B5B68FB60FB6803F4803249
:1024FC007B681B6A9A4206D1FB6803F470127B68F6
:10250C005B6A9A4201D0012300E000231846183779
:10251C00BD4680BD00100240007000406000424289
:10252C0080B584B000AF786039607B68002B01D136
:10253C000123D0E06A4B1B6803F007033A689A4208
:10254C0010D9674B1B6823F0070265493B6813439E
:10255C000B60634B1B6803F007033A689A4201D087
:10256C000123B8E07B681B6803F00203002B20D02A
:10257C007B681B6803F00403002B05D0594B5B6888
:10258C00584A43F4E06353607B681B6803F008030C
:10259C00002B05D0534B5B68524A43F46053536095
:1025AC00504B5B6823F0F0027B689B684D491343EA
:1025BC004B607B681B6803F00103002B40D07B68E9
:1025CC005B68012B07D1474B1B6803F40033002BCE
:1025DC0015D101237FE07B685B68022B07D1414B4F
:1025EC001B6803F00073002B09D1012373E03D4BF2
:1025FC001B6803F00203002B01D101236BE0394B64
:10260C005B6823F003027B685B68364913434B60BD
:10261C00FFF72CFAF8600AE0FFF728FA0246FB688D
:10262C00D31A41F28832934201D9032353E02D4B44
:10263C005B6803F00C027B685B689B009A42EBD1F1
:10264C00274B1B6803F007033A689A4210D2244BBD
:10265C001B6823F0070222493B6813430B60204B95
:10266C001B6803F007033A689A4201D0012332E059
:10267C007B681B6803F00403002B08D0194B5B68C4
:10268C0023F4E0627B68DB68164913434B607B687C
:10269C001B6803F00803002B09D0124B5B6823F472
:1026AC0060527B681B69DB000E4913434B6000F0E2
:1026BC0021F802460B4B5B681B0903F00F030A4918
:1026CC00CB5C22FA03F3094A1360094B1B681846CA
:1026DC00FFF78AF9002318461037BD4680BD00BFAE
:1026EC0000200240001002400C300008E0000020E6
:1026FC00E400002080B487B000AF0023FB6000230F
:10270C00BB6000237B6100237B6000233B611E4B7D
:10271C005B68FB60FB6803F00C03042B02D0082BF6
:10272C0003D027E0194B3B6127E0FB689B0C03F0BF
:10273C000F03174AD35C7B60FB6803F48033002BD8
:10274C0010D0114B5B685B0C03F00103114AD35C96
:10275C00BB607B680D4A02FB03F2BB68B2FBF3F370
:10276C007B6104E07B680C4A02FB03F37B617B69B1
:10277C003B6102E0054B3B6100BF3B6918461C37CF
:10278C00BD4680BC704700BF0010024000127A00AA
:10279C001C3000082C30000800093D0080B485B0C6
:1027AC0000AF78600A4B1B680A4AA2FB03235B0A42
:1027BC007A6802FB03F3FB6000BFFB685A1EFA60E9
:1027CC00002BF9D100BF00BF1437BD4680BC704749
:1027DC00E0000020D34D621080B582B000AF78606D
:1027EC007B68002B01D1012341E07B6893F83D30DD
:1027FC00DBB2002B06D17B68002283F83C20786882
:10280C00FEF758FF7B68022283F83D207B681A682C
:10281C007B6804331946104600F056FA7B68012297
:10282C0083F846207B68012283F83E207B680122D6
:10283C0083F83F207B68012283F840207B680122CB
:10284C0083F841207B68012283F842207B680122B7
:10285C0083F843207B68012283F844207B680122A3
:10286C0083F845207B68012283F83D20002318461D
:10287C000837BD4680BD000080B485B000AF7860DD
:10288C007B6893F83D30DBB2012B01D0012335E09E
:10289C007B68022283F83D207B681B68DA687B68C2
:1028AC001B6842F00102DA607B681B68164A93428F
:1028BC0009D07B681B68B3F1804F04D07B681B6820
:1028CC00124A934211D17B681B689B6803F0070383
:1028DC00FB60FB68062B10D07B681B681A687B6852
:1028EC001B6842F001021A6007E07B681B681A68DB
:1028FC007B681B6842F001021A60002318461437EB
:10290C00BD4680BC704700BF002C01400004004055
:10291C0080B584B000AF78607B681B68DB68FB60B7
:10292C007B681B681B69BB60BB6803F00203002B50
:10293C0020D0FB6803F00203002B1BD07B681B68C4
:10294C006FF002021A617B6801221A777B681B68A0
:10295C009B6903F00303002B03D0786800F098F90F
:10296C0005E0786800F08BF9786800F09AF97B68DC
:10297C0000221A77BB6803F00403002B20D0FB68FD
:10298C0003F00403002B1BD07B681B686FF0040260
:10299C001A617B6802221A777B681B689B6903F4B7
:1029AC004073002B03D0786800F072F905E078686A
:1029BC0000F065F9786800F074F97B6800221A77EA
:1029CC00BB6803F00803002B20D0FB6803F008035E
:1029DC00002B1BD07B681B686FF008021A617B68A8
:1029EC0004221A777B681B68DB6903F00303002B56
:1029FC0003D0786800F04CF905E0786800F03FF9F6
:102A0C00786800F04EF97B6800221A77BB6803F0F7
:102A1C001003002B20D0FB6803F01003002B1BD0FD
:102A2C007B681B686FF010021A617B6808221A77AA
:102A3C007B681B68DB6903F44073002B03D0786858
:102A4C0000F026F905E0786800F019F9786800F0D4
:102A5C0028F97B6800221A77BB6803F00103002B6E
:102A6C000CD0FB6803F00103002B07D07B681B68BC
:102A7C006FF001021A617868FEF788FDBB6803F0FD
:102A8C008003002B0CD0FB6803F08003002B07D0D5
:102A9C007B681B686FF080021A61786800F06FFA2F
:102AAC00BB6803F04003002B0CD0FB6803F0400321
:102ABC00002B07D07B681B686FF040021A617868A6
:102ACC0000F0F8F8BB6803F02003002B0CD0FB6877
:102ADC0003F02003002B07D07B681B686FF02002EB
:102AEC001A61786800F042FA00BF1037BD4680BD0D
:102AFC0080B584B000AF786039600023FB737B68CD
:102B0C0093F83C30012B01D10223B4E07B68012205
:102B1C0083F83C207B68022283F83D207B681B688D
:102B2C009B68BB60BB6823F07703BB60BB6823F476
:102B3C007F43BB607B681B68BA689A603B681B6804
:102B4C00B3F5005F3ED0B3F5005F00F28780B3F5BC
:102B5C00805F00F08680B3F5805F7FD8702B1AD031
:102B6C00702B7BD8602B50D0602B77D8502B3CD05F
:102B7C00502B73D8402B58D0402B6FD8302B64D0AF
:102B8C00302B6BD8202B60D0202B67D8002B5CD03F
:102B9C00102B5AD062E07B6818683B6899683B68D8
:102BAC005A683B68DB6800F06AF97B681B689B68B5
:102BBC00BB60BB6843F07703BB607B681B68BA687B
:102BCC009A604FE07B6818683B6899683B685A6864
:102BDC003B68DB6800F053F97B681B689A687B687C
:102BEC001B6842F480429A603CE07B6818683B6842
:102BFC0059683B68DB681A4600F0CAF87B681B68AA
:102C0C005021184600F021F92CE07B6818683B68CD
:102C1C0059683B68DB681A4600F0E8F87B681B686B
:102C2C006021184600F011F91CE07B6818683B68BD
:102C3C0059683B68DB681A4600F0AAF87B681B6889
:102C4C004021184600F001F90CE07B681A683B68DB
:102C5C001B681946104600F0F8F803E00123FB73DB
:102C6C0000E000BF7B68012283F83D207B680022D6
:102C7C0083F83C20FB7B18461037BD4680BD80B4E2
:102C8C0083B000AF786000BF0C37BD4680BC704786
:102C9C0080B483B000AF786000BF0C37BD4680BCF9
:102CAC00704780B483B000AF786000BF0C37BD466E
:102CBC0080BC704780B483B000AF786000BF0C3725
:102CCC00BD4680BC7047000080B485B000AF786012
:102CDC0039607B681B68FB607B682B4A934207D08A
:102CEC007B68B3F1804F03D07B68284A934208D1AC
:102CFC00FB6823F07003FB603B685B68FA68134366
:102D0C00FB607B68204A934207D07B68B3F1804F0D
:102D1C0003D07B681D4A934208D1FB6823F44073AF
:102D2C00FB603B68DB68FA681343FB60FB6823F0CD
:102D3C0080023B685B691343FB607B68FA681A602E
:102D4C003B689A687B68DA623B681A687B689A62AF
:102D5C007B680D4A934203D13B681A697B681A63FE
:102D6C007B6801225A617B681B6903F00103002B0D
:102D7C0005D07B681B6923F001027B681A6100BFD8
:102D8C001437BD4680BC7047002C01400004004045
:102D9C0080B487B000AFF860B9607A60FB681B6ADA
:102DAC007B61FB681B6A23F00102FB681A62FB68FB
:102DBC009B693B613B6923F0F0033B617B681B0122
:102DCC003A6913433B617B6923F00A037B617A699F
:102DDC00BB6813437B61FB683A699A61FB687A694B
:102DEC001A6200BF1C37BD4680BC704780B487B0E8
:102DFC0000AFF860B9607A60FB681B6A7B61FB68A6
:102E0C001B6A23F01002FB681A62FB689B693B612A
:102E1C003B6923F470433B617B681B033A691343A2
:102E2C003B617B6923F0A0037B61BB681B017A6962
:102E3C0013437B61FB683A699A61FB687A691A6291
:102E4C0000BF1C37BD4680BC704780B485B000AF56
:102E5C00786039607B689B68FB60FB6823F07003CB
:102E6C00FB603A68FB68134343F00703FB607B6825
:102E7C00FA689A6000BF1437BD4680BC704780B4B6
:102E8C0087B000AFF860B9607A603B60FB689B6804
:102E9C007B617B6923F47F437B613B681A027B680F
:102EAC001A43BB6813437A6913437B61FB687A69E5
:102EBC009A6000BF1C37BD4680BC704780B485B09B
:102ECC0000AF786039607B6893F83C30012B01D1FE
:102EDC00022341E07B68012283F83C207B680222BC
:102EEC0083F83D207B681B685B68FB607B681B6814
:102EFC009B68BB60FB6823F07003FB603B681B683E
:102F0C00FA681343FB607B681B68FA685A607B683D
:102F1C001B68144A934209D07B681B68B3F1804F3D
:102F2C0004D07B681B68104A93420CD1BB6823F019
:102F3C008003BB603B685B68BA681343BB607B680B
:102F4C001B68BA689A607B68012283F83D207B6815
:102F5C00002283F83C20002318461437BD4680BC61
:102F6C00704700BF002C01400004004080B483B0C7
:102F7C0000AF786000BF0C37BD4680BC704780B492
:102F8C0083B000AF786000BF0C37BD4680BC704783
:102F9C0070B500260C4D0D4C641BA410A64209D133
:102FAC0000F022F800260A4D0A4C641BA410A6421D
:102FBC0005D170BD55F8043B98470136EEE755F83E
:102FCC00043B98470136F2E73030000830300008F7
:102FDC00303000083430000803460244934200D1DC
:102FEC00704703F8011BF9E7F8B500BFF8BC08BC43
:102FFC009E467047F8B500BFF8BC08BC9E467047AB
:10300C00000000000000000001020304060708098C
:10301C0002030405060708090A0B0C0D0E0F10100D
:04302C00010200009D
:043030003101000862
:043034000D01000882
:103038000100000000000000000000000000000087
:103048000000000000000000000000000000000078
:103058000000000000000000010000000000000067
:103068000000000000000000000000000000000058
:103078000000000000000000000000000000000048
:103088000100000000000000000000000000000037
:103098000000000000000000000000000000000028
:1030A8000000000000000000010000000000000017
:1030B8000000000000000000000000000000000008
:1030C80000000000000000000000000000000000F8
:1030D800C800000004000000080000000C00000008
:1030E80005000000050000000500000005000000C4
:1030F80002000000020000000200000002000000C0
:1031080003000000030000000300000003000000AB
:0C31180000127A0010000000010000000E
:040000050800197D59
:00000001FF
